{
  "transactions": [
    {
      "hash": "0x303eb4b3f085fc6ae4cc7d0a46788047e46f5ecb8c6eacc803a15fa513e0fb8d",
      "transactionType": "CALL",
      "contractName": null,
      "contractAddress": "0x9ddfaca8183c41ad55329bdeed9f6a8d53168b1b",
      "function": "createSubscription()",
      "arguments": [],
      "transaction": {
        "from": "0x715f22c57bb3a0eb4c80a05daca9449defd5c83f",
        "to": "0x9ddfaca8183c41ad55329bdeed9f6a8d53168b1b",
        "gas": "0x25056",
        "value": "0x0",
        "input": "0xa21a23e4",
        "nonce": "0x3f",
        "chainId": "0xaa36a7"
      },
      "additionalContracts": [],
      "isFixedGasLimit": false
    },
    {
      "hash": "0x7124a57c20c061b41d02fa4e8d29e003b7ef07e711b6cb8b22bfc506155259e2",
      "transactionType": "CALL",
      "contractName": "LinkToken",
      "contractAddress": "0x779877a7b0d9e8603169ddbd7836e478b4624789",
      "function": "transferAndCall(address,uint256,bytes)",
      "arguments": [
        "0x9DdfaCa8183c41ad55329BdeeD9F6A8d53168B1B",
        "3000000000000000000",
        "0x324e332141fb83cd57e70920e61291a29477f494c781997e71c6327975ab8dd6"
      ],
      "transaction": {
        "from": "0x715f22c57bb3a0eb4c80a05daca9449defd5c83f",
        "to": "0x779877a7b0d9e8603169ddbd7836e478b4624789",
        "gas": "0x1c1ff",
        "value": "0x0",
        "input": "0x4000aea00000000000000000000000009ddfaca8183c41ad55329bdeed9f6a8d53168b1b00000000000000000000000000000000000000000000000029a2241af62c000000000000000000000000000000000000000000000000000000000000000000600000000000000000000000000000000000000000000000000000000000000020324e332141fb83cd57e70920e61291a29477f494c781997e71c6327975ab8dd6",
        "nonce": "0x40",
        "chainId": "0xaa36a7"
      },
      "additionalContracts": [],
      "isFixedGasLimit": false
    }
  ],
  "receipts": [
    {
      "status": "0x1",
      "cumulativeGasUsed": "0x2195f97",
      "logs": [
        {
          "address": "0x9ddfaca8183c41ad55329bdeed9f6a8d53168b1b",
          "topics": [
            "0x1d3015d7ba850fa198dc7b1a3f5d42779313a681035f77c8c03764c61005518d",
            "0x42b7484265b30f6507540d038ccf767fd19d46f0d67da04ba6d484831089d702"
          ],
          "data": "0x000000000000000000000000715f22c57bb3a0eb4c80a05daca9449defd5c83f",
          "blockHash": "0xfcd3c8a1a94ddd398686eff227a6fd032bc9f11ceb0e8d7b476fc6983c0d2ecf",
          "blockNumber": "0x8d0427",
          "blockTimestamp": "0x68ce8ee8",
          "transactionHash": "0x303eb4b3f085fc6ae4cc7d0a46788047e46f5ecb8c6eacc803a15fa513e0fb8d",
          "transactionIndex": "0x4c",
          "logIndex": "0x5e",
          "removed": false
        }
      ],
      "logsBloom": "0x00000000000000000000000000000000000000000020000000000000000000000000000000000000000000000000000000000000000000000000000000000000000000000000000004000000000000000000000000000400000000000000000008000000000000000000000000000000000004000000000000000000000000000000000000000000000000010000000000000000000000000000000000000000000000000000000000000000000000000000000000000000000000000000000800000000000000000000000000000000000000000000000000000220000000000000000000000000000000000000000000000000000000000000000000000000",
      "type": "0x2",
      "transactionHash": "0x303eb4b3f085fc6ae4cc7d0a46788047e46f5ecb8c6eacc803a15fa513e0fb8d",
      "transactionIndex": "0x4c",
      "blockHash": "0xfcd3c8a1a94ddd398686eff227a6fd032bc9f11ceb0e8d7b476fc6983c0d2ecf",
      "blockNumber": "0x8d0427",
      "gasUsed": "0x1acd8",
      "effectiveGasPrice": "0x1092be",
      "from": "0x715f22c57bb3a0eb4c80a05daca9449defd5c83f",
      "to": "0x9ddfaca8183c41ad55329bdeed9f6a8d53168b1b",
      "contractAddress": null
    }
  ],
  "libraries": [],
  "pending": [],
  "returns": {},
  "timestamp": 1758367465110,
  "chain": 11155111,
  "commit": null
}