{
  "transactions": [
    {
      "hash": "0xaaf1c0823d82da9325323d638e518f20748f18d8f3ebb3cb4adbb05ccb9ba6fb",
      "transactionType": "CALL",
      "contractName": null,
      "contractAddress": "0x9ddfaca8183c41ad55329bdeed9f6a8d53168b1b",
      "function": "createSubscription()",
      "arguments": [],
      "transaction": {
        "from": "0x715f22c57bb3a0eb4c80a05daca9449defd5c83f",
        "to": "0x9ddfaca8183c41ad55329bdeed9f6a8d53168b1b",
        "gas": "0x25056",
        "value": "0x0",
        "input": "0xa21a23e4",
        "nonce": "0x41",
        "chainId": "0xaa36a7"
      },
      "additionalContracts": [],
      "isFixedGasLimit": false
    },
    {
      "hash": "0xd08597bf4d690e5d4cfe3dbac42acac4228ab97635f5620071c72b00a1f32cdd",
      "transactionType": "CALL",
      "contractName": "LinkToken",
      "contractAddress": "0x779877a7b0d9e8603169ddbd7836e478b4624789",
      "function": "transferAndCall(address,uint256,bytes)",
      "arguments": [
        "0x9DdfaCa8183c41ad55329BdeeD9F6A8d53168B1B",
        "3000000000000000000",
        "0x7154fbe71eb00a1403daafae676ae08a764ffcc4e529e28ff1b69413081ee2a3"
      ],
      "transaction": {
        "from": "0x715f22c57bb3a0eb4c80a05daca9449defd5c83f",
        "to": "0x779877a7b0d9e8603169ddbd7836e478b4624789",
        "gas": "0x1c1ff",
        "value": "0x0",
        "input": "0x4000aea00000000000000000000000009ddfaca8183c41ad55329bdeed9f6a8d53168b1b00000000000000000000000000000000000000000000000029a2241af62c0000000000000000000000000000000000000000000000000000000000000000006000000000000000000000000000000000000000000000000000000000000000207154fbe71eb00a1403daafae676ae08a764ffcc4e529e28ff1b69413081ee2a3",
        "nonce": "0x42",
        "chainId": "0xaa36a7"
      },
      "additionalContracts": [],
      "isFixedGasLimit": false
    }
  ],
  "receipts": [
    {
      "status": "0x1",
      "cumulativeGasUsed": "0x14ecefb",
      "logs": [
        {
          "address": "0x9ddfaca8183c41ad55329bdeed9f6a8d53168b1b",
          "topics": [
            "0x1d3015d7ba850fa198dc7b1a3f5d42779313a681035f77c8c03764c61005518d",
            "0x48827228a26cb09c90e85b84b129f365fecc7f4c127fff9d4219c8f9af791a21"
          ],
          "data": "0x000000000000000000000000715f22c57bb3a0eb4c80a05daca9449defd5c83f",
          "blockHash": "0x068bf2e30556443a7cb8f8c802f4374f2dbfac712169d02eabd3180fd6651dcd",
          "blockNumber": "0x8d042a",
          "blockTimestamp": "0x68ce8f0c",
          "transactionHash": "0xaaf1c0823d82da9325323d638e518f20748f18d8f3ebb3cb4adbb05ccb9ba6fb",
          "transactionIndex": "0x3f",
          "logIndex": "0x4f",
          "removed": false
        }
      ],
      "logsBloom": "0x00000000000000000000000000000000040000000020000000000000000000000000000000000000000000000000000000000000000000000000000000000000000010000000000000000000000000000000000000000400002000000000000008000000000000000000000000000000000004000000000000000000000000000000000000000000000000010000000000000000000000000000000000000000000000000000000000000000000000000000000000000000000000000000000800000000000000000000000000000000000000000000000000000000000000000000000000000000000000000000000000000000000000000000000000000000",
      "type": "0x2",
      "transactionHash": "0xaaf1c0823d82da9325323d638e518f20748f18d8f3ebb3cb4adbb05ccb9ba6fb",
      "transactionIndex": "0x3f",
      "blockHash": "0x068bf2e30556443a7cb8f8c802f4374f2dbfac712169d02eabd3180fd6651dcd",
      "blockNumber": "0x8d042a",
      "gasUsed": "0x1acd8",
      "effectiveGasPrice": "0x11b366",
      "from": "0x715f22c57bb3a0eb4c80a05daca9449defd5c83f",
      "to": "0x9ddfaca8183c41ad55329bdeed9f6a8d53168b1b",
      "contractAddress": null
    }
  ],
  "libraries": [],
  "pending": [],
  "returns": {},
  "timestamp": 1758367501508,
  "chain": 11155111,
  "commit": null
}