{
  "transactions": [
    {
      "hash": "0x635f205b707a36307b097b6b457f4e8053038b30cbd010da43254ad34577eeea",
      "transactionType": "CALL",
      "contractName": null,
      "contractAddress": "0x779877a7b0d9e8603169ddbd7836e478b4624789",
      "function": "transferAndCall(address,uint256,bytes)",
      "arguments": [
        "0x5CE8D5A2BC84beb22a398CCA51996F7930313D61",
        "3000000000000000000",
        "0x9b28793b2cb8784061e855fdc6ecc082fc5182f02ee6ab30c7cc531e51677a62"
      ],
      "transaction": {
        "from": "0x715f22c57bb3a0eb4c80a05daca9449defd5c83f",
        "to": "0x779877a7b0d9e8603169ddbd7836e478b4624789",
        "gas": "0xde46",
        "value": "0x0",
        "input": "0x4000aea00000000000000000000000005ce8d5a2bc84beb22a398cca51996f7930313d6100000000000000000000000000000000000000000000000029a2241af62c0000000000000000000000000000000000000000000000000000000000000000006000000000000000000000000000000000000000000000000000000000000000209b28793b2cb8784061e855fdc6ecc082fc5182f02ee6ab30c7cc531e51677a62",
        "nonce": "0xd",
        "chainId": "0xaa36a7"
      },
      "additionalContracts": [],
      "isFixedGasLimit": false
    }
  ],
  "receipts": [
    {
      "status": "0x1",
      "cumulativeGasUsed": "0x1044b7e",
      "logs": [
        {
          "address": "0x779877a7b0d9e8603169ddbd7836e478b4624789",
          "topics": [
            "0xddf252ad1be2c89b69c2b068fc378daa952ba7f163c4a11628f55a4df523b3ef",
            "0x000000000000000000000000715f22c57bb3a0eb4c80a05daca9449defd5c83f",
            "0x0000000000000000000000005ce8d5a2bc84beb22a398cca51996f7930313d61"
          ],
          "data": "0x00000000000000000000000000000000000000000000000029a2241af62c0000",
          "blockHash": "0x394ac97cdbc4e723597b70ebc6d374565707a61249c1fafa864f47bbef78918a",
          "blockNumber": "0x8cb914",
          "blockTimestamp": "0x68cac270",
          "transactionHash": "0x635f205b707a36307b097b6b457f4e8053038b30cbd010da43254ad34577eeea",
          "transactionIndex": "0xcb",
          "logIndex": "0x91",
          "removed": false
        },
        {
          "address": "0x779877a7b0d9e8603169ddbd7836e478b4624789",
          "topics": [
            "0xe19260aff97b920c7df27010903aeb9c8d2be5d310a2c67824cf3f15396e4c16",
            "0x000000000000000000000000715f22c57bb3a0eb4c80a05daca9449defd5c83f",
            "0x0000000000000000000000005ce8d5a2bc84beb22a398cca51996f7930313d61"
          ],
          "data": "0x00000000000000000000000000000000000000000000000029a2241af62c0000000000000000000000000000000000000000000000000000000000000000004000000000000000000000000000000000000000000000000000000000000000209b28793b2cb8784061e855fdc6ecc082fc5182f02ee6ab30c7cc531e51677a62",
          "blockHash": "0x394ac97cdbc4e723597b70ebc6d374565707a61249c1fafa864f47bbef78918a",
          "blockNumber": "0x8cb914",
          "blockTimestamp": "0x68cac270",
          "transactionHash": "0x635f205b707a36307b097b6b457f4e8053038b30cbd010da43254ad34577eeea",
          "transactionIndex": "0xcb",
          "logIndex": "0x92",
          "removed": false
        }
      ],
      "logsBloom": "0x00000004000000000000000000000000000000000000080000000000020000000000000000000000000000000000000000004000000000000000800000000000000000000000000000000008000000000000000000000000000020000000000000000000000800000000000000000000000000000000000000000010000000000000000000000000000000000000800000000020002000000001000000000000000000000000000000000000000000000000000000000000000000000000000000000002000000000000000000000000000000000000000100000000000000000000000000000000000000000000000000000000000000000000000000000000",
      "type": "0x2",
      "transactionHash": "0x635f205b707a36307b097b6b457f4e8053038b30cbd010da43254ad34577eeea",
      "transactionIndex": "0xcb",
      "blockHash": "0x394ac97cdbc4e723597b70ebc6d374565707a61249c1fafa864f47bbef78918a",
      "blockNumber": "0x8cb914",
      "gasUsed": "0xa0ed",
      "effectiveGasPrice": "0x10fd80",
      "from": "0x715f22c57bb3a0eb4c80a05daca9449defd5c83f",
      "to": "0x779877a7b0d9e8603169ddbd7836e478b4624789",
      "contractAddress": null
    }
  ],
  "libraries": [],
  "pending": [],
  "returns": {},
  "timestamp": 1758118514230,
  "chain": 11155111,
  "commit": null
}